{
	"contracts/demo 3.sol": {
		"Demo3": {
			"abi": [
				{
					"inputs": [],
					"name": "test1GetLength",
					"outputs": [
						{
							"internalType": "uint256",
							"name": "",
							"type": "uint256"
						}
					],
					"stateMutability": "pure",
					"type": "function"
				},
				{
					"inputs": [],
					"name": "test2GetLength",
					"outputs": [
						{
							"internalType": "uint256",
							"name": "",
							"type": "uint256"
						}
					],
					"stateMutability": "pure",
					"type": "function"
				}
			],
			"devdoc": {
				"kind": "dev",
				"methods": {},
				"version": 1
			},
			"evm": {
				"assembly": "    /* \"contracts/demo 3.sol\":59:337  contract Demo3 {... */\n  mstore(0x40, 0x80)\n  callvalue\n  dup1\n  iszero\n  tag_1\n  jumpi\n  0x00\n  dup1\n  revert\ntag_1:\n  pop\n  dataSize(sub_0)\n  dup1\n  dataOffset(sub_0)\n  0x00\n  codecopy\n  0x00\n  return\nstop\n\nsub_0: assembly {\n        /* \"contracts/demo 3.sol\":59:337  contract Demo3 {... */\n      mstore(0x40, 0x80)\n      callvalue\n      dup1\n      iszero\n      tag_1\n      jumpi\n      0x00\n      dup1\n      revert\n    tag_1:\n      pop\n      jumpi(tag_2, lt(calldatasize, 0x04))\n      shr(0xe0, calldataload(0x00))\n      dup1\n      0x2190d282\n      eq\n      tag_3\n      jumpi\n      dup1\n      0xb8095f11\n      eq\n      tag_4\n      jumpi\n    tag_2:\n      0x00\n      dup1\n      revert\n        /* \"contracts/demo 3.sol\":202:334  function test2GetLength() public pure returns(uint256){... */\n    tag_3:\n      tag_5\n      tag_6\n      jump\t// in\n    tag_5:\n      mload(0x40)\n      dup1\n      dup3\n      dup2\n      mstore\n      0x20\n      add\n      swap2\n      pop\n      pop\n      mload(0x40)\n      dup1\n      swap2\n      sub\n      swap1\n      return\n        /* \"contracts/demo 3.sol\":80:197  function test1GetLength() public pure returns(uint256){... */\n    tag_4:\n      tag_7\n      tag_8\n      jump\t// in\n    tag_7:\n      mload(0x40)\n      dup1\n      dup3\n      dup2\n      mstore\n      0x20\n      add\n      swap2\n      pop\n      pop\n      mload(0x40)\n      dup1\n      swap2\n      sub\n      swap1\n      return\n        /* \"contracts/demo 3.sol\":202:334  function test2GetLength() public pure returns(uint256){... */\n    tag_6:\n        /* \"contracts/demo 3.sol\":248:255  uint256 */\n      0x00\n        /* \"contracts/demo 3.sol\":266:283  uint[] memory bid */\n      0x60\n        /* \"contracts/demo 3.sol\":297:299  20 */\n      0x14\n        /* \"contracts/demo 3.sol\":286:300  new uint[](20) */\n      0xffffffffffffffff\n      dup2\n      gt\n      dup1\n      iszero\n      tag_10\n      jumpi\n      0x00\n      dup1\n      revert\n    tag_10:\n      pop\n      mload(0x40)\n      swap1\n      dup1\n      dup3\n      mstore\n      dup1\n      0x20\n      mul\n      0x20\n      add\n      dup3\n      add\n      0x40\n      mstore\n      dup1\n      iszero\n      tag_11\n      jumpi\n      dup2\n      0x20\n      add\n      0x20\n      dup3\n      mul\n      dup1\n      calldatasize\n      dup4\n      calldatacopy\n      dup1\n      dup3\n      add\n      swap2\n      pop\n      pop\n      swap1\n      pop\n    tag_11:\n      pop\n        /* \"contracts/demo 3.sol\":266:300  uint[] memory bid = new uint[](20) */\n      swap1\n      pop\n        /* \"contracts/demo 3.sol\":317:320  bid */\n      dup1\n        /* \"contracts/demo 3.sol\":317:327  bid.length */\n      mload\n        /* \"contracts/demo 3.sol\":310:327  return bid.length */\n      swap2\n      pop\n      pop\n        /* \"contracts/demo 3.sol\":202:334  function test2GetLength() public pure returns(uint256){... */\n      swap1\n      jump\t// out\n        /* \"contracts/demo 3.sol\":80:197  function test1GetLength() public pure returns(uint256){... */\n    tag_8:\n        /* \"contracts/demo 3.sol\":126:133  uint256 */\n      0x00\n        /* \"contracts/demo 3.sol\":144:163  uint[10] memory bid */\n      tag_13\n      tag_14\n      jump\t// in\n    tag_13:\n        /* \"contracts/demo 3.sol\":180:190  bid.length */\n      0x0a\n        /* \"contracts/demo 3.sol\":173:190  return bid.length */\n      swap2\n      pop\n      pop\n        /* \"contracts/demo 3.sol\":80:197  function test1GetLength() public pure returns(uint256){... */\n      swap1\n      jump\t// out\n    tag_14:\n      mload(0x40)\n      dup1\n      0x0140\n      add\n      0x40\n      mstore\n      dup1\n      0x0a\n      swap1\n      0x20\n      dup3\n      mul\n      dup1\n      calldatasize\n      dup4\n      calldatacopy\n      dup1\n      dup3\n      add\n      swap2\n      pop\n      pop\n      swap1\n      pop\n      pop\n      swap1\n      jump\t// out\n\n    auxdata: 0xa26469706673582212207c82fcef79e021c072c3bacb04b3357d391cfd6724969b1d6a5d23af3d00678c64736f6c63430007040033\n}\n",
				"bytecode": {
					"linkReferences": {},
					"object": "608060405234801561001057600080fd5b5061012c806100206000396000f3fe6080604052348015600f57600080fd5b506004361060325760003560e01c80632190d282146037578063b8095f11146053575b600080fd5b603d606f565b6040518082815260200191505060405180910390f35b605960c3565b6040518082815260200191505060405180910390f35b60006060601467ffffffffffffffff81118015608a57600080fd5b5060405190808252806020026020018201604052801560b85781602001602082028036833780820191505090505b509050805191505090565b600060cb60d3565b600a91505090565b604051806101400160405280600a9060208202803683378082019150509050509056fea26469706673582212207c82fcef79e021c072c3bacb04b3357d391cfd6724969b1d6a5d23af3d00678c64736f6c63430007040033",
					"opcodes": "PUSH1 0x80 PUSH1 0x40 MSTORE CALLVALUE DUP1 ISZERO PUSH2 0x10 JUMPI PUSH1 0x0 DUP1 REVERT JUMPDEST POP PUSH2 0x12C DUP1 PUSH2 0x20 PUSH1 0x0 CODECOPY PUSH1 0x0 RETURN INVALID PUSH1 0x80 PUSH1 0x40 MSTORE CALLVALUE DUP1 ISZERO PUSH1 0xF JUMPI PUSH1 0x0 DUP1 REVERT JUMPDEST POP PUSH1 0x4 CALLDATASIZE LT PUSH1 0x32 JUMPI PUSH1 0x0 CALLDATALOAD PUSH1 0xE0 SHR DUP1 PUSH4 0x2190D282 EQ PUSH1 0x37 JUMPI DUP1 PUSH4 0xB8095F11 EQ PUSH1 0x53 JUMPI JUMPDEST PUSH1 0x0 DUP1 REVERT JUMPDEST PUSH1 0x3D PUSH1 0x6F JUMP JUMPDEST PUSH1 0x40 MLOAD DUP1 DUP3 DUP2 MSTORE PUSH1 0x20 ADD SWAP2 POP POP PUSH1 0x40 MLOAD DUP1 SWAP2 SUB SWAP1 RETURN JUMPDEST PUSH1 0x59 PUSH1 0xC3 JUMP JUMPDEST PUSH1 0x40 MLOAD DUP1 DUP3 DUP2 MSTORE PUSH1 0x20 ADD SWAP2 POP POP PUSH1 0x40 MLOAD DUP1 SWAP2 SUB SWAP1 RETURN JUMPDEST PUSH1 0x0 PUSH1 0x60 PUSH1 0x14 PUSH8 0xFFFFFFFFFFFFFFFF DUP2 GT DUP1 ISZERO PUSH1 0x8A JUMPI PUSH1 0x0 DUP1 REVERT JUMPDEST POP PUSH1 0x40 MLOAD SWAP1 DUP1 DUP3 MSTORE DUP1 PUSH1 0x20 MUL PUSH1 0x20 ADD DUP3 ADD PUSH1 0x40 MSTORE DUP1 ISZERO PUSH1 0xB8 JUMPI DUP2 PUSH1 0x20 ADD PUSH1 0x20 DUP3 MUL DUP1 CALLDATASIZE DUP4 CALLDATACOPY DUP1 DUP3 ADD SWAP2 POP POP SWAP1 POP JUMPDEST POP SWAP1 POP DUP1 MLOAD SWAP2 POP POP SWAP1 JUMP JUMPDEST PUSH1 0x0 PUSH1 0xCB PUSH1 0xD3 JUMP JUMPDEST PUSH1 0xA SWAP2 POP POP SWAP1 JUMP JUMPDEST PUSH1 0x40 MLOAD DUP1 PUSH2 0x140 ADD PUSH1 0x40 MSTORE DUP1 PUSH1 0xA SWAP1 PUSH1 0x20 DUP3 MUL DUP1 CALLDATASIZE DUP4 CALLDATACOPY DUP1 DUP3 ADD SWAP2 POP POP SWAP1 POP POP SWAP1 JUMP INVALID LOG2 PUSH5 0x6970667358 0x22 SLT KECCAK256 PUSH29 0x82FCEF79E021C072C3BACB04B3357D391CFD6724969B1D6A5D23AF3D00 PUSH8 0x8C64736F6C634300 SMOD DIV STOP CALLER "
				},
				"gasEstimates": {
					"creation": {
						"codeDepositCost": "60000",
						"executionCost": "111",
						"totalCost": "60111"
					},
					"external": {
						"test1GetLength()": "infinite",
						"test2GetLength()": "infinite"
					}
				},
				"methodIdentifiers": {
					"test1GetLength()": "b8095f11",
					"test2GetLength()": "2190d282"
				}
			},
			"storageLayout": {
				"storage": [],
				"types": null
			},
			"userdoc": {
				"kind": "user",
				"methods": {},
				"version": 1
			}
		}
	}
}